:100000000C9428010C9459010C9459010C94590139
:100010000C9459010C9459010C9459010C945901F8
:100020000C9459010C9459010C9459010C945901E8
:100030000C9459010C9459010C9459010C945901D8
:100040000C9459010C9422070C9459010C945901F9
:100050000C9459010C9459010C9459010C94EE051F
:100060000C9459010C9462060C9438060C945901B6
:100070000C9459010C9459010C9459010C94590198
:100080000C94F4060C9459010C9459010C945901E8
:100090000C9459010C9459010C9459010C94590178
:1000A0000C9459010C9459010C94C6060C945901F6
:1000B0000C9459010C9459010C9459010C94980614
:1000C0000C9459010C9459010C9459010C94590148
:1000D0000C9459010C9459010C9459010C94590138
:1000E0000C9459010C94CD010C94D6010C9440034E
:1000F0000C94E0010C94AF010C94E4010C94F30215
:100100000C94C9010C94C5010C94AA010C94AD0285
:100110000C94FC010C948A020C94F2010C94F601EC
:100120000C94EE010C94C1010C945D020C94E80156
:100130000C9400020C946B070C94BB020C94990273
:100140000C94D0010C94DA0100000A0B02090C0D8A
:100150000E0807030401000000000000000000007A
:10016000000000000000000000000000000000008F
:10017000000000001211100000000000000000004C
:10018000000000000000000000000000000000006F
:100190002200250028002B002E003100340002012F
:1001A0000000050108010B010000210024002700C8
:1001B0002A002D0030003300010100000401070176
:1001C0000A010505050507050808080802020202DC
:1001D0000A0A0808040404040101010101010101E3
:1001E0000303030303030303040707070C0C0C0CAE
:1001F0000C0C0C0C02020202060606060606060697
:100200000B0B0B0B0B0B0B0B010210202008081023
:100210002040102040800201020108040201010276
:10022000040810204080804020100804020180044F
:1002300002018040201008040201080402010102AA
:1002400004081020408001020408102040806B0741
:1002500011241FBECFEFD1E2DEBFCDBF00E00CBF47
:1002600012E0A0E0B2E0EEE1FDE100E00BBF02C071
:1002700007900D92A231B107D9F723E0A2E1B2E0D5
:1002800001C01D92A037B207E1F711E0C8E2D1E04A
:1002900000E006C021970109802FFE010E94850E13
:1002A000C732D10780E00807A9F70E94C3070C9462
:1002B0008D0E0C94000090E0FC01E85FFD4F24914E
:1002C0008E539E4FFC018491882399F090E0880F13
:1002D000991FFC01E855FE4FA591B491FC01E2572E
:1002E000FE4F859194918FB7F894EC91E22BEC93AB
:1002F0008FBF0895282F30E0F901E85BFE4F9491FD
:10030000F901E85FFD4F44912E533E4FF9012491CE
:10031000222309F435C0992311F191509231F8F458
:10032000E92FF0E08827E856FE4F8F4F0C94850E9A
:10033000C901CD01AA01C101C501AF01D001D6019A
:10034000DA01E001E401E801EE01F201AF01F6019A
:10035000FC010002809180008F7780938000E22F63
:10036000F0E0EE0FFF1FE257FE4FA591B4918FB75B
:10037000F894EC91611148C040954E234C938FBF87
:100380000895809180008F7DE8CF80918000877FE5
:10039000E4CF84B58F7784BDE2CF84B58F7DFBCF6A
:1003A0008091B0008F778093B000D9CF8091B0005A
:1003B0008F7DF9CF809190008F7780939000CFCF81
:1003C000809190008F7DF9CF80919000877FF5CF4D
:1003D0008091A0008F778093A000C1CF8091A00072
:1003E0008F7DF9CF8091A000877FF5CF809120018C
:1003F0008F7780932001B3CF809120018F7DF9CF3B
:1004000080912001877FF5CF4E2BB8CF3FB7F8946E
:100410008091AC029091AD02A091AE02B091AF027A
:1004200026B5A89B05C02F3F19F00196A11DB11D4F
:100430003FBFBA2FA92F982F8827BC01CD01620F8B
:10044000711D811D911D42E0660F771F881F991F46
:100450004A95D1F708958F929F92AF92BF92CF9213
:10046000DF92EF92FF924B015C010E9406026B014A
:100470007C010E9406026C197D098E099F09683E65
:10048000734081059105A8F321E0821A9108A10823
:10049000B10888EEC80E83E0D81EE11CF11C81145F
:1004A0009104A104B10429F7FF90EF90DF90CF9061
:1004B000BF90AF909F908F900895AF92BF92CF92D0
:1004C000DF92EF92FF920F931F93CF93DF936C0114
:1004D0007B018B01040F151FEB015E01AE18BF08F5
:1004E000C017D10759F06991D601ED91FC910190A7
:1004F000F081E02DC6011995892B79F7C501DF91AF
:10050000CF911F910F91FF90EF90DF90CF90BF9010
:10051000AF900895FC01538D448D252F30E0842F3A
:1005200090E0821B930B541710F0CF96089501971B
:100530000895FC01918D828D981761F0A28DAE0F08
:10054000BF2FB11D5D968C91928D9F5F9F73928F8F
:1005500090E008958FEF9FEF0895FC01918D828DBB
:10056000981731F0828DE80FF11D858D90E0089588
:100570008FEF9FEF0895FC01918D228D892F90E0E0
:10058000805C9F4F821B91098F739927089582EB9E
:1005900092E00E94BB0221E0892B09F420E0822F27
:1005A0000895FC01A48DA80FB92FB11DA35ABF4F08
:1005B0002C91848D90E001968F739927848FA68962
:1005C000B7892C93A089B1898C91837080648C93B6
:1005D000938D848D981306C00288F389E02D808165
:1005E0008F7D80830895EF92FF920F931F93CF9397
:1005F000DF93EC0181E0888F9B8D8C8D98131AC05E
:10060000E889F989808185FF15C09FB7F894EE8944
:10061000FF896083E889F9898081837080648083A1
:100620009FBF81E090E0DF91CF911F910F91FF90EC
:10063000EF900895F62E0B8D10E00F5F1F4F0F7394
:100640001127E02E8C8D8E110CC00FB607FCFACF4F
:10065000E889F989808185FFF5CFCE010E94D1021A
:10066000F1CFEB8DEC0FFD2FF11DE35AFF4FF08220
:100670009FB7F8940B8FEA89FB8980818062CFCF86
:10068000CF93DF93EC01888D8823B9F0AA89BB89C9
:10069000E889F9898C9185FD03C0808186FD0DC0B4
:1006A0000FB607FCF7CF8C9185FFF2CF808185FFD5
:1006B000EDCFCE010E94D102E9CFDF91CF91089515
:1006C00080E090E0892B29F00E94C70281110E94EE
:1006D000000080E090E0892B49F080E090E0892BD9
:1006E00029F00E94000081110E94000080E090E04B
:1006F000892B49F080E090E0892B29F00E940000CE
:1007000081110E94000080E090E0892B49F080E098
:1007100090E0892B29F00E94000081110C940000C8
:1007200008958F929F92AF92BF92CF92DF92EF92F5
:10073000FF92FC01828158E5C52E52E0D52EC81AE1
:10074000D10887FDD394CC0CDD1CCC0CDD1C0D2C0A
:10075000000CEE08FF08818178E8872E912C881A1A
:10076000910887FD9394880C991C880C991C092C7E
:10077000000CAA08BB0880818F3FD1F190E0FC01FA
:10078000EE0FFF1FE80FF91FE95EFD4F8181928197
:1007900033E0880F991F3A95E1F7B0E0A0E044E01C
:1007A000B595A795979587954A95D1F702969C019F
:1007B0002F5F3F4F032E000C440B550B28193909AE
:1007C0004A095B09A4EBB0E00E94350EA70196012F
:1007D000281939094A095B090E94160EC901FF90C0
:1007E000EF90DF90CF90BF90AF909F908F90089543
:1007F00090E080E0DCCF8F929F92AF92BF92FF9209
:100800000F931F93CF93DF93FC016F3F760709F49B
:100810005EC0653B710511F464EB70E0F0808FE21F
:100820008F1508F44AC0828108E512E0081B1109FF
:1008300087FD1395000F111F000F111F8181C8E85C
:10084000D0E0C81BD10987FDD395CC0FDD1FCC0F9D
:10085000DD1F4E010D2E000CAA08BB089801012EC9
:10086000000C440B550B281939094A095B09DB01B7
:100870000E94400E24EB30E040E050E00E94160E53
:10088000820E931EA41EB51E8C169D062CF0E80148
:10089000801691060CF4E4012297CC0FDD1F2FB7D0
:1008A000F8948F2D90E0FC01EE0FFF1FE80FF91F69
:1008B000E95EFD4FD283C1832FBFDF91CF911F919E
:1008C0000F91FF90BF90AF909F908F90089570E030
:1008D00060E0A4CF1F93CF93DF93EC01162F8881A4
:1008E000803308F04DC0862F0E945B018881282F3D
:1008F00030E0F901EE0FFF1FE20FF31FE95EFD4F3D
:100900001F7760816078612B608319821A822CE0E6
:10091000622F0E94790E829FB001112430E020E006
:10092000AB01420F531FFA01EE0FFF1FE40FF51F3B
:10093000E95EFD4F908197FD16C02F5F3F4F2C3031
:10094000310571F7813009F51092800082E08093C3
:1009500081001092850010928400B19A80916F00FE
:10096000826080936F00E8818E2F90E0FC01EE0F93
:10097000FF1FE80FF91FE95EFD4F808180688083CB
:100980008881DF91CF911F910895823061F4109298
:10099000900080939100109295001092940088BB73
:1009A00080937100E0CF833069F41092A00082E060
:1009B0008093A1001092A5001092A40089BB80939F
:1009C0007200D1CF8111CFCF1092200182E08093AD
:1009D000210110922501109224018ABB809373009B
:1009E000C2CFAF92BF92CF92DF92EF92FF920F935E
:1009F0001F93CF93DF936B017A01EC01CE5EDD4F45
:100A000028813CE0389F8001399F100D1124A0906F
:100A10001602B12C27FF1FC0FB01118210828881B2
:100A20008F5F888388819801280F311D87FD3A9553
:100A3000F6012A153B051CF488818C30C4F18081B5
:100A40009181049680349C4908F473C0F60180813A
:100A50009181049670C088819801280F311D87FD0F
:100A60003A952A153B05DCF68881A801480F511DEF
:100A700087FD5A95FA01EE0FFF1FE40FF51FE95E9F
:100A8000FD4F808187FFCBCF8881F801E80FF11DF2
:100A900087FDFA95CF01EE0FFF1FE80FF91FE95E02
:100AA000FD4F808160E08F770E947A01B8CF80810E
:100AB00091812881A801420F511D27FD5A959A0165
:100AC000FA01EE0FFF1FE20FF31FE95EFD4F2181D8
:100AD0003281820F931FF70191838083888198016F
:100AE000280F311D87FD3A95F901EE0FFF1FE20F28
:100AF000F31FE95EFD4F808187FF22C08881080FC8
:100B0000111D87FD1A95F801EE0FFF1FE00FF11F71
:100B1000E95EFD4F808161E08F77DF91CF911F917A
:100B20000F91FF90EF90DF90CF90BF90AF900C941B
:100B30007A0180E49CE9F701918380838FEF8883B9
:100B4000DF91CF911F910F91FF90EF90DF90CF90A9
:100B5000BF90AF90089502C0759567954A95E2F7EA
:100B600061700C947A01CF93DF93EC0182EB92E0F9
:100B70000E949902853B910514F084EB90E097FF69
:100B800002C090E080E09093B1028093B00264EBE9
:100B900070E0681B790BCE01DF91CF910C94FB03C1
:100BA000CF93DF93EC0182EB92E00E949902803BAD
:100BB000910514F08FEA90E08530910514F485E0FA
:100BC00090E09093B1028093B0026FEA70E0681BEE
:100BD000790BCE01DF91CF910C94FB031F920F9202
:100BE0000FB60F9211242F933F938F939F93AF9340
:100BF000BF938091A8029091A902A091AA02B091FE
:100C0000AB023091A70223E0230F2D3758F5019650
:100C1000A11DB11D2093A7028093A8029093A90261
:100C2000A093AA02B093AB028091AC029091AD0266
:100C3000A091AE02B091AF020196A11DB11D8093AB
:100C4000AC029093AD02A093AE02B093AF02BF91FD
:100C5000AF919F918F913F912F910F900FBE0F9069
:100C60001F90189526E8230F0296A11DB11DD2CF23
:100C70001F920F920FB60F9211240BB60F922F9363
:100C80003F934F935F936F937F938F939F93AF9314
:100C9000BF93EF93FF9382EB92E00E94D102FF910A
:100CA000EF91BF91AF919F918F917F916F915F91E4
:100CB0004F913F912F910F900BBE0F900FBE0F9051
:100CC0001F9018951F920F920FB60F9211240BB61A
:100CD0000F922F938F939F93EF93FF93E091C20214
:100CE000F091C3028081E091C802F091C90282FDB7
:100CF0001DC090818091CB028F5F8F732091CC02B9
:100D0000821741F0E091CB02F0E0EE54FD4F958F59
:100D10008093CB02FF91EF919F918F912F910F9034
:100D20000BBE0F900FBE0F901F9018958081F2CFD1
:100D30001F920F920FB60F9211240BB60F922F93A2
:100D40003F934F935F936F937F938F939F93AF9353
:100D5000BF93EF93FF9348E251E064E271E090E0CB
:100D600080E00E94F104FF91EF91BF91AF919F91BC
:100D70008F917F916F915F914F913F912F910F9044
:100D80000BBE0F900FBE0F901F9018951F920F92E1
:100D90000FB60F9211240BB60F922F933F934F93E0
:100DA0005F936F937F938F939F93AF93BF93EF93D3
:100DB000FF9348EA50E064EA70E083E090E00E942C
:100DC000F104FF91EF91BF91AF919F918F917F912E
:100DD0006F915F914F913F912F910F900BBE0F90AC
:100DE0000FBE0F901F9018951F920F920FB60F9283
:100DF00011240BB60F922F933F934F935F936F93F2
:100E00007F938F939F93AF93BF93EF93FF9348E9A3
:100E100050E064E970E082E090E00E94F104FF910C
:100E2000EF91BF91AF919F918F917F916F915F9162
:100E30004F913F912F910F900BBE0F900FBE0F90CF
:100E40001F9018951F920F920FB60F9211240BB698
:100E50000F922F933F934F935F936F937F938F9353
:100E60009F93AF93BF93EF93FF9348E850E064E8FC
:100E700070E081E090E00E94F104FF91EF91BF915A
:100E8000AF919F918F917F916F915F914F913F9122
:100E90002F910F900BBE0F900FBE0F901F901895C3
:100EA000FC0190911602903398F481E0890F8093B1
:100EB00016029083892F90E0FC01EE0FFF1FE80FD0
:100EC000F91FE95EFD4F88EB9BE0928381830895D3
:100ED0008FEF80830895E2EBF2E01382128288EEB6
:100EE00093E0A0E0B0E084839583A683B78384E099
:100EF00092E09183808385EC90E09587848784ECF1
:100F000090E09787868780EC90E0918B808B81ECD6
:100F100090E0938B828B82EC90E0958B848B86ECB7
:100F200090E0978B868B118E128E138E148E8DE629
:100F300093E00E9450078AE693E00E94500787E6FC
:100F400093E00E94500784E693E00E94500781E6F8
:100F500093E00E9450078EE593E00E9450078BE5D6
:100F600093E00E94500788E593E00E94500785E5D2
:100F700093E00E94500782E593E00E9450078FE4BF
:100F800093E00C945007789484B5826084BD84B556
:100F9000816084BD85B5826085BD85B5816085BD74
:100FA00080916E00816080936E001092810080912C
:100FB00081008260809381008091810081608093B4
:100FC0008100809180008160809380008091B100D9
:100FD00084608093B1008091B00081608093B00004
:100FE0008091910082608093910080919100816056
:100FF0008093910080919000816080939000809117
:10100000A10082608093A1008091A1008160809303
:10101000A1008091A00081608093A00080912101B7
:101020008260809321018091210181608093210160
:101030008091200181608093200180917A008460FA
:1010400080937A0080917A00826080937A00809108
:101050007A00816080937A0080917A008068809322
:101060007A001092C100E091C202F091C30282E0C6
:101070008083E091BE02F091BF021082E091C00235
:10108000F091C10280E180831092CA02E091C60211
:10109000F091C70286E08083E091C402F091C5021E
:1010A000808180618083E091C402F091C5028081DB
:1010B00088608083E091C402F091C50280818068DD
:1010C0008083E091C402F091C50280818F7D80838E
:1010D00066E370E08DE693E00E946A0464EB70E0E2
:1010E0008DE693E00E94FB036AE370E08AE693E0FA
:1010F0000E946A0464EB70E08AE693E00E94FB03BE
:1011000068E370E087E693E00E946A0464EB70E0B5
:1011100087E693E00E94FB0367E370E084E693E0D8
:101120000E946A0464EB70E084E693E00E94FB0393
:101130006CE370E081E693E00E946A0464EB70E087
:1011400081E693E00E94FB036BE370E08FE493E0A1
:101150000E946A0464EB70E08FE493E00E94FB035A
:1011600069E370E08EE593E00E946A0464EB70E04E
:101170008EE593E00E94FB036DE370E08BE593E066
:101180000E946A0464EB70E08BE593E00E94FB032D
:101190006EE370E088E593E00E946A0464EB70E01F
:1011A00088E593E00E94FB036FE370E085E593E040
:1011B0000E946A0464EB70E085E593E00E94FB0303
:1011C00064EB70E082E593E00E94FB0386E00E94FE
:1011D0005B0187E00E945B0181E10E945B0182E18B
:1011E0000E945B018BE00E945B018DE00E945B012D
:1011F0008CE00E945B0188E00E945B0185E00E9418
:101200005B0183E00E945B0184E00E945B018EE051
:101210000E945B018FE00E945B018AE00E945B01FB
:1012200086E10E945B0180E10E945B0180E40E94F4
:101230005B0183E10E945B0189E00E945B0182E027
:101240000E945B0189E10E945B018AE10E945B01CF
:101250008BE10E945B018CE10E945B018DE10E94A9
:101260005B018EE10E945B018FE10E945B0180E2E5
:101270000E945B0182E30E945B0183E30E945B01A9
:1012800084E30E945B0160E086E00E947A0160E0F6
:1012900087E00E947A0160E081E10E947A0160E0CB
:1012A00082E10E947A0160E08BE00E947A0160E0B6
:1012B0008DE00E947A0160E08CE00E947A0160E09B
:1012C00088E00E947A0160E085E00E947A0160E097
:1012D00083E00E947A0160E084E00E947A0160E08D
:1012E0008EE00E947A0160E08FE00E947A0160E067
:1012F0008AE00E947A0160E086E10E947A0160E063
:1013000080E10E947A0160E080E40E947A0160E05E
:1013100083E10E947A0160E089E00E947A0160E046
:1013200082E00E947A0164EF71E080E090E00E9428
:101330002B02C4EBD0E0BE018DE693E00E94FB03DC
:10134000BE018AE693E00E94FB03BE0187E693E0BC
:101350000E94FB03BE0184E693E00E94FB03BE01F2
:1013600081E693E00E94FB03BE018FE493E00E94BC
:10137000FB03BE018EE593E00E94FB03BE018BE5FB
:1013800093E00E94FB03BE0188E593E00E94FB030B
:10139000BE0185E593E00E94FB0362E370E080E01C
:1013A00090E00E942B02219730F661E086E00E94D7
:1013B0007A0161E087E00E947A0161E081E10E94A8
:1013C0007A0161E082E10E947A0161E08BE00E9493
:1013D0007A0161E08DE00E947A0161E08CE00E9478
:1013E0007A0161E088E00E947A0161E085E00E9474
:1013F0007A0161E083E00E947A0161E084E00E946A
:101400007A0161E08EE00E947A0161E08FE00E9443
:101410007A0161E08AE00E947A0161E086E10E943F
:101420007A0161E080E10E947A0161E080E40E943B
:101430007A0161E083E10E947A0161E089E00E9423
:101440007A0161E082E00E947A0161E082E30E9419
:101450007A0161E083E30E947A0161E084E30E9403
:101460007A0160ED77E080E090E00E942B02D0E00E
:10147000C0E0BE018DE693E00E94FB03BE018AE658
:1014800093E00E94FB03BE0187E693E00E94FB030A
:10149000BE0184E693E00E94FB03BE0181E693E077
:1014A0000E94FB03BE018FE493E00E94FB03BE0198
:1014B0008EE593E00E94FB03BE018BE593E00E9462
:1014C000FB03BE0188E593E00E94FB03BE0185E5B6
:1014D00093E00E94FB0362E370E080E090E00E94F2
:1014E0002B022196C53BD10521F660E086E00E94E3
:1014F0007A0160E087E00E947A0160E081E10E9469
:101500007A0160E082E10E947A0160E08BE00E9453
:101510007A0160E08DE00E947A0160E08CE00E9438
:101520007A0160E088E00E947A0160E085E00E9434
:101530007A0160E083E00E947A0160E084E00E942A
:101540007A0160E08EE00E947A0160E08FE00E9404
:101550007A0160E08AE00E947A0160E086E10E9400
:101560007A0160E080E10E947A0160E080E40E94FC
:101570007A0160E083E10E947A0160E089E00E94E4
:101580007A0160E082E00E947A0160E082E30E94DA
:101590007A0160E083E30E947A0160E084E30E94C4
:1015A0007A0161E089E10E947A0161E08AE10E94AA
:1015B0007A0161E08BE10E947A0161E08CE10E9496
:1015C0007A0161E08DE10E947A0161E08EE10E9482
:1015D0007A0161E08FE10E947A0161E080E20E947D
:1015E0007A0168EE73E080E090E00E942B0282EBCB
:1015F00092E00E94BB0240970CF4C9C182EB92E0DA
:101600000E9499029093B1028093B0028F3F91059E
:1016100009F0BDC182EB92E00E9499029093B10261
:101620008093B002029709F0B2C18DE693E00E9468
:10163000B3058AE693E00E94B30584E693E00E9436
:10164000D00587E693E00E94D00581E693E00E94F2
:10165000D00585E593E00E94D0058BE593E00E94DC
:10166000D0058EE593E00E94D00588E593E00E94C6
:10167000D00582E593E00E94B3058FE493E00E94D9
:10168000D00582E593E00E949103843B910524F408
:1016900061E080E40E947A0182E593E00E94910378
:1016A000843B910524F060E080E40E947A0187E6A3
:1016B00093E00E94910361E044970CF060E089E0C0
:1016C0000E947A0182EB92E00E949902EC0147E0CD
:1016D00050E0BC0183E190E00E94AB0545E050E0A2
:1016E000BE0186E090E00E94AB0544E050E0BE0100
:1016F00087E090E00E94AB0543E050E0BE0181E14D
:1017000090E00E94AB0542E050E0BE0182E190E033
:101710000E94AB0541E050E0BE018BE090E00E94EA
:10172000AB0582EB92E00E949902EC0147E050E0A9
:10173000BC018DE090E00E94AB0546E050E0BE01A8
:101740008CE090E00E94AB0545E050E0BE0188E0EF
:1017500090E00E94AB0544E050E0BE0185E090E0DF
:101760000E94AB0543E050E0BE0183E090E00E94A0
:10177000AB0542E050E0BE018EE090E00E94AB0578
:1017800041E050E0BE018FE090E00E94AB0550E0E8
:1017900040E0BE018AE090E00E94AB0582EB92E05F
:1017A0000E949902EC019093B1028093B00242E052
:1017B00050E0BC0184E090E00E94AB0541E050E0C5
:1017C000BE0186E190E00E94AB0550E040E0BE0122
:1017D00080E190E00E94AB0582EB92E00E949902CA
:1017E0007C0101978E37910508F0D1C010E000E030
:1017F00082EB92E00E94BB02892B39F462E070E038
:1018000080E090E00E942B02F3CF82EB92E00E94F6
:101810009902EC019093B1028093B0028136910558
:10182000D1F461E089E10E947A0161E08AE10E94DD
:101830007A0161E08BE10E947A0161E08CE10E9413
:101840007A0160E08DE10E947A0160E08EE10E9401
:101850007A0161E057C082369105F1F460E089E1D8
:101860000E947A0160E08AE10E947A0161E08BE1E6
:101870000E947A0160E08CE10E947A0160E08DE1D3
:101880000E947A0161E08EE10E947A0160E08FE1BE
:101890000E947A0161E004C183369105B1F460E0F1
:1018A00089E10E947A0161E08AE10E947A0161E0A7
:1018B0008BE10E947A0160E08CE10E947A0160E095
:1018C0008DE10E947A0160E0DECF8436910509F057
:1018D00061C061E089E10E947A0161E08AE10E94D1
:1018E0007A0160E08BE10E947A0161E08CE10E9464
:1018F0007A0160E08DE10E947A0160E08EE10E9451
:101900007A0160E08FE10E947A0161E080E20E944A
:101910007A0161E082E30E947A01C236D10599F032
:10192000C536D10581F0C836D10569F0CB36D10571
:1019300051F0CE36D10539F0C137D10521F060E044
:10194000C437D10509F461E083E30E947A01C3360C
:10195000D10599F0C636D10581F0C936D10569F0B7
:10196000CC36D10551F0CF36D10539F0C237D1058B
:1019700021F060E0C537D10509F461E084E30E94FD
:101980007A010F5F1F4FE016F10609F031CF0E9478
:1019900060032DCE8536910591F460E089E10E94C7
:1019A0007A0161E08AE10E947A0160E08BE10E94A5
:1019B0007A0160E08CE10E947A0161E081CF863695
:1019C000910531F460E089E10E947A0160E0EACF9C
:1019D0008736910571F461E089E10E947A0161E046
:1019E0008AE10E947A0161E08BE10E947A0160E065
:1019F00025CF8836910551F460E089E10E947A0193
:101A000060E08AE10E947A0160E052CF8936910558
:101A100031F461E089E10E947A0161E0F2CF8A3617
:101A20009105F1F460E089E10E947A0160E08AE1C9
:101A30000E947A0160E08BE10E947A0160E08CE113
:101A40000E947A0160E08DE10E947A0160E08EE1FF
:101A50000E947A0161E08FE10E947A0160E056CF36
:101A60008B36910511F561E089E10E947A0161E010
:101A70008AE10E947A0161E08BE10E947A0161E0D3
:101A80008CE10E947A0160E08DE10E947A0160E0C1
:101A90008EE10E947A0161E08FE10E947A0160E0AC
:101AA00080E20E947A0160E035CF8C369105D1F456
:101AB00060E089E10E947A0160E08AE10E947A0197
:101AC00061E08BE10E947A0160E08CE10E947A0182
:101AD00060E08DE10E947A0161E08EE10E947A016E
:101AE00060E0DACF8D369105D1F460E089E10E94A3
:101AF0007A0161E08AE10E947A0161E08BE10E9453
:101B00007A0160E08CE10E947A0160E08DE10E9440
:101B10007A0160E08EE10E947A0160E09CCF8E360F
:101B2000910591F461E089E10E947A0161E08AE126
:101B30000E947A0160E08BE10E947A0161E08CE111
:101B40000E947A0160E014C08F369105B1F460E024
:101B500089E10E947A0161E08AE10E947A0160E0F5
:101B60008BE10E947A0160E08CE10E947A0161E0E1
:101B70008DE10E947A0160E0B0CF8037910591F449
:101B800060E089E10E947A0160E08AE10E947A01C6
:101B900060E08BE10E947A0160E08CE10E947A01B2
:101BA00061E0B4CF8137910571F461E089E10E9471
:101BB0007A0161E08AE10E947A0161E08BE10E9492
:101BC0007A0160E05DCF8237910571F460E089E1D0
:101BD0000E947A0160E08AE10E947A0160E08BE174
:101BE0000E947A0160E0ABCF8337910509F419CEEA
:101BF0008437910509F432CE8537910509F44FCE2B
:101C00008637910509F465CE8737910509F04BCFEA
:101C100061E089E10E947A0160E08AE10E947A0134
:101C200061E08BE10E947A0161E0C4CE052E97FB52
:101C30001EF400940E942D0E57FD07D00E94480EFE
:101C400007FC03D04EF40C942D0E50954095309522
:101C500021953F4F4F4F5F4F089590958095709518
:101C600061957F4F8F4F9F4F08950E946A0EA59FE9
:101C7000900DB49F900DA49F800D911D1124089587
:101C8000B7FF0C94350E0E94350E821B930B0895FE
:101C9000A1E21A2EAA1BBB1BFD010DC0AA1FBB1F70
:101CA000EE1FFF1FA217B307E407F50720F0A21BE2
:101CB000B30BE40BF50B661F771F881F991F1A944F
:101CC00069F760957095809590959B01AC01BD0179
:101CD000CF010895A29FB001B39FC001A39F700DD3
:101CE000811D1124911DB29F700D811D1124911D24
:101CF0000895991B79E004C0991F961708F0961B68
:101D0000881F7A95C9F780950895EE0FFF1F881FE9
:0E1D10008BBF0790F691E02D1994F894FFCF49
:101D1E0000000000F3025D028A024003BB0299023A
:021D2E00AD0204
:00000001FF
