:100000000C942B010C945C010C945C010C945C012D
:100010000C945C010C945C010C945C010C945C01EC
:100020000C945C010C945C010C945C010C945C01DC
:100030000C945C010C945C010C945C010C945C01CC
:100040000C945C010C94A5080C945C010C945C016C
:100050000C945C010C945C010C945C010C94D10731
:100060000C945C010C949B070C9471070C945C013C
:100070000C945C010C945C010C945C010C945C018C
:100080000C9477080C945C010C945C010C945C015A
:100090000C945C010C945C010C945C010C945C016C
:1000A0000C945C010C945C010C9449080C945C0168
:1000B0000C945C010C945C010C945C010C941B0886
:1000C0000C945C010C945C010C945C010C945C013C
:1000D0000C945C010C945C010C945C010C945C012C
:1000E0000C945C010C949F030C9478030C9497037C
:1000F0000C94A9030C9466030C94B7030C942A0285
:100100000C9493020C94FE0F0C94A5030C946103C1
:100110000C94E0020C94FD010C947C030C945B02A3
:100120000C9480030C9491030C9439020C94B30347
:100130000C9484030C94AD030C948D030C94EE0882
:100140000C949B030C9487030C944D020000210037
:10015000240027002A002D00300033000101000098
:10016000040107010A0100000A0B02090C0D0E0828
:100170000703040100000000000000000000000070
:10018000000000000000000000000000000000006F
:10019000000012111000000000000000000000002C
:1001A000000000000000000000000000010210201C
:1001B000200808102040102040800201020108049D
:1001C0000201010204081020408080402010080431
:1001D000020180040201804020100804020108048A
:1001E00002010102040810204080010204081020CE
:1001F000408000002200250028002B002E00310046
:10020000340002010000050108010B010505050588
:10021000070508080808020202020A0A080804047E
:1002200004040101010101010101030303030303AC
:100230000303040707070C0C0C0C0C0C0C0C02023B
:10024000020206060606060606060B0B0B0B0B0B38
:100250000B0BEE08FE0F11241FBECFEFD1E2DEBF65
:10026000CDBF00E00CBF12E0A0E0B2E0E0EAF3E2B4
:1002700000E00BBF02C007900D92A831B107D9F77B
:1002800023E0A8E1B2E001C01D92A83AB207E1F76D
:1002900011E0CAE2D1E000E006C021970109802FF9
:1002A000FE010E949110C932D10780E00807A9F72A
:1002B0000E94010A0C94BE110C9400008F929F9230
:1002C000AF92BF92CF92DF92EF92FF92CF932091A5
:1002D0006F033091700382179307E8F54B01AA244E
:1002E000BB24C82DC52ED62EE72EFF24BC2DA42F4F
:1002F00020917503222361F0829E40011124C92DB3
:100300002C9D60011124BD2D249FF0011124AF2FDD
:10031000E0917B03E0907603F090770330917803CF
:10032000E31323C09C01220F331F820F931F8E0DF6
:100330009F1DE0917803E80FF92FF11DC083E09134
:100340007903E80FF92FF11DB08320917A03820F12
:10035000911DFC01A083CF91FF90EF90DF90CF9093
:10036000BF90AF909F908F900895880F991F880F2E
:10037000991F8E0D9F1D472F55276627772722230C
:1003800049F030E0249F7001259FF00C349FF00C61
:1003900011244F2DE80FF92FF11D4083CACFCF92C2
:1003A000DF92EF92FF920F931F93CF93DF936B0136
:1003B0007C01EA0100916F0310917003401751070F
:1003C00098F42115310531F0240F351F201731071E
:1003D00008F48901C017D10738F4B701A601CE018E
:1003E0000E945E012196F6CFDF91CF911F910F9170
:1003F000FF90EF90DF90CF900895AF92BF92CF9291
:10040000DF92EF92FF920F931F93CF93DF936C01D4
:100410007B018B01040F151FEB015E01AE18BF08B5
:10042000C017D10759F06991D601ED91FC91019067
:10043000F081E02DC6011995892B79F7C501DF916F
:10044000CF911F910F91FF90EF90DF90CF90BF90D1
:10045000AF900895FC01538D448D252F30E0842FFB
:1004600090E0821B930B541710F0CF9608950197DC
:100470000895FC01918D828D981761F0A28DAE0FC9
:10048000BF2FB11D5D968C91928D9F5F9F73928F50
:1004900090E008958FEF9FEF0895FC01918D828D7C
:1004A000981731F0828DE80FF11D858D90E0089549
:1004B0008FEF9FEF0895FC01918D228D892F90E0A1
:1004C000805C9F4F821B91098F739927089588EB59
:1004D00092E00E945B0221E0892B09F420E0822F48
:1004E0000895FC01A48DA80FB92FB11DA35ABF4FC9
:1004F0002C91848D90E001968F739927848FA68923
:10050000B7892C93A089B1898C91837080648C9376
:10051000938D848D981306C00288F389E02D808125
:100520008F7D80830895EF92FF920F931F93CF9357
:10053000DF93EC0181E0888F9B8D8C8D98131AC01E
:10054000E889F989808185FF15C09FB7F894EE8905
:10055000FF896083E889F989808183708064808362
:100560009FBF81E090E0DF91CF911F910F91FF90AD
:10057000EF900895F62E0B8D10E00F5F1F4F0F7355
:100580001127E02E8C8D8E110CC00FB607FCFACF10
:10059000E889F989808185FFF5CFCE010E9471023B
:1005A000F1CFEB8DEC0FFD2FF11DE35AFF4FF082E1
:1005B0009FB7F8940B8FEA89FB8980818062CFCF47
:1005C000CF93DF93EC01888D8823B9F0AA89BB898A
:1005D000E889F9898C9185FD03C0808186FD0DC075
:1005E0000FB607FCF7CF8C9185FFF2CF808185FF96
:1005F000EDCFCE010E947102E9CFDF91CF91089536
:1006000080E090E0892B29F00E94670281110E940E
:10061000000080E090E0892B49F080E090E0892B99
:1006200029F00E94000081110E94000080E090E00B
:10063000892B49F080E090E0892B29F00E9400008E
:1006400081110E94000080E090E0892B49F080E059
:1006500090E0892B29F00E94000081110C94000089
:100660000895282F30E0F901EA59FE4F9491F901DD
:10067000E455FE4F4491245F3D4FF901249122231C
:1006800009F435C0992311F191509231F8F4E92F12
:10069000F0E08827E15BFC4F8F4F0C9491108003B2
:1006A0008403610378037C03660387038D0391034E
:1006B00097039B039F03A503A9036603AD03B3033D
:1006C000B703809180008F7780938000E22FF0E065
:1006D000EE0FFF1FEE50FE4FA591B4918FB7F89427
:1006E000EC91611148C040954E234C938FBF089503
:1006F000809180008F7DE8CF80918000877FE4CF5C
:1007000084B58F7784BDE2CF84B58F7DFBCF809198
:10071000B0008F778093B000D9CF8091B0008F7DEB
:10072000F9CF809190008F7780939000CFCF809108
:1007300090008F7DF9CF80919000877FF5CF8091D9
:10074000A0008F778093A000C1CF8091A0008F7D03
:10075000F9CF8091A000877FF5CF809120018F771E
:1007600080932001B3CF809120018F7DF9CF8091BC
:100770002001877FF5CF4E2BB8CFCF93DF9390E04A
:10078000FC01E455FE4F2491845F9D4FFC01849150
:100790008823D1F090E0880F991FFC01E45BFE4FA5
:1007A000A591B491FC01EE50FE4FC591D491611119
:1007B0000EC09FB7F8948C91E22FE0958E238C9316
:1007C0002881E223E8839FBFDF91CF9108958FB7FF
:1007D000F894EC91E22BEC938FBFF6CF3FB7F894EF
:1007E0008091B2029091B302A091B402B091B5028F
:1007F00026B5A89B05C02F3F19F00196A11DB11D7C
:100800003FBFBA2FA92F982F8827BC01CD01620FB7
:10081000711D811D911D42E0660F771F881F991F72
:100820004A95D1F70895CF92DF92EF92FF920F93FE
:100830001F93CF93DF9300D000D000D0CDB7DEB7A9
:100840008091760390917703892B09F480C0C09042
:100850007C03D0907D03E0907E03F0907F030E94A4
:10086000EE036C157D058E059F0550F40E94EE0386
:1008700060937C0370937D0380937E0390937F034A
:100880000E94EE0300917C0310917D0320917E0372
:1008900030917F03601B710B820B930B6C327140A4
:1008A00081059105A0F2F8948091710390917203F3
:1008B0009A838983E0917603F0917703DF011196A3
:1008C0008081898790916D03E0918003F09181038D
:1008D00080918203992309F449C09081982B9887CD
:1008E0009081809589238F838F818C8388E08B838F
:1008F00058856F8149853B812C8189819A815083FC
:1009000047FD252F3A952083262F39F0441F00C03C
:1009100000006083000000C0F2CF38E04D9160839A
:100920000000019761F7F0938103E093800349870A
:100930003B832C839A83898378940E94EE0360938F
:100940007C0370937D0380937E0390937F032996AD
:100950000FB6F894DEBF0FBECDBFDF91CF911F91D0
:100960000F91FF90EF90DF90CF9008959081982B9A
:1009700098879081809589238F838F818E8388E0EB
:100980008D8358856F8149853D812E8189819A812A
:10099000508347FD252F00C000C0208300C000C049
:1009A00000C000C000C060830000262F3A9541F0CF
:1009B000441F000000C000C000C000C000C0E8CF5D
:1009C00038E04D9100C0608300C0019709F7F093B3
:1009D0008103E093800349873D832E83ABCF8F92C1
:1009E0009F92AF92BF92CF92DF92EF92FF924B0114
:1009F0005C010E94EE036B017C010E94EE036C1906
:100A00007D098E099F09683E734081059105A8F311
:100A100021E0821A9108A108B10888EEC80E83E08F
:100A2000D81EE11CF11C81149104A104B10429F722
:100A3000FF90EF90DF90CF90BF90AF909F908F90FE
:100A400008958F929F92AF92BF92CF92DF92EF92D2
:100A5000FF92FC01828158E5C52E52E0D52EC81ABE
:100A6000D10887FDD394CC0CDD1CCC0CDD1C0D2CE7
:100A7000000CEE08FF08818178E8872E912C881AF7
:100A8000910887FD9394880C991C880C991C092C5B
:100A9000000CAA08BB0880818F3FD1F190E0FC01D7
:100AA000EE0FFF1FE80FF91FE35EFD4F818192817A
:100AB00033E0880F991F3A95E1F7B0E0A0E044E0F9
:100AC000B595A795979587954A95D1F702969C017C
:100AD0002F5F3F4F032E000C440B550B281939098B
:100AE0004A095B09A4EBB0E00E942D10A701960112
:100AF000281939094A095B090E940E10C901FF90A3
:100B0000EF90DF90CF90BF90AF909F908F9008951F
:100B100090E080E0DCCF8F929F92AF92BF92FF92E5
:100B20000F931F93CF93DF93FC016F3F760709F478
:100B30005EC0653B710511F464EB70E0F0808FE2FC
:100B40008F1508F44AC0828108E512E0081B1109DC
:100B500087FD1395000F111F000F111F8181C8E839
:100B6000D0E0C81BD10987FDD395CC0FDD1FCC0F7A
:100B7000DD1F4E010D2E000CAA08BB089801012EA6
:100B8000000C440B550B281939094A095B09DB0194
:100B90000E94381024EB30E040E050E00E940E103C
:100BA000820E931EA41EB51E8C169D062CF0E80125
:100BB000801691060CF4E4012297CC0FDD1F2FB7AD
:100BC000F8948F2D90E0FC01EE0FFF1FE80FF91F46
:100BD000E35EFD4FD283C1832FBFDF91CF911F9181
:100BE0000F91FF90BF90AF909F908F90089570E00D
:100BF00060E0A4CF1F93CF93DF93EC01162F888181
:100C0000803308F04EC061E0812F0E94BD038881CF
:100C1000282F30E0F901EE0FFF1FE20FF31FE35E14
:100C2000FD4F1F736081607C612B608319821A8283
:100C30002CE0622F0E947110829FB001112430E0DD
:100C400020E0AB01420F531FFA01EE0FFF1FE40F2C
:100C5000F51FE35EFD4F908196FD16C02F5F3F4F5D
:100C60002C30310571F7813009F51092800082E057
:100C7000809381001092850010928400B19A809137
:100C80006F00826080936F00E8818E2F90E0FC01FE
:100C9000EE0FFF1FE80FF91FE35EFD4F80818064B8
:100CA00080838881DF91CF911F910895823061F414
:100CB00010929000809391001092950010929400F1
:100CC00088BB80937100E0CF833069F41092A0005C
:100CD00082E08093A1001092A5001092A40089BB2D
:100CE00080937200D1CF8111CFCF1092200182E08A
:100CF0008093210110922501109224018ABB8093D8
:100D00007300C2CFAF92BF92CF92DF92EF92FF9269
:100D10000F931F93CF93DF936B017A01EC01C85EB1
:100D2000DD4F28813CE0389F8001399F100D112450
:100D3000A0901C02B12C27FF1FC0FB011182108262
:100D400088818F5F888388819801280F311D87FDF6
:100D50003A95F6012A153B051CF488818C30C4F1C4
:100D600080819181049680349C4908F473C0F60117
:100D700080819181049670C088819801280F311D6F
:100D800087FD3A952A153B05DCF68881A801480FB6
:100D9000511D87FD5A95FA01EE0FFF1FE40FF51F55
:100DA000E35EFD4F808186FFCBCF8881F801E80F9D
:100DB000F11D87FDFA95CF01EE0FFF1FE80FF91F18
:100DC000E35EFD4F808160E08F730E943103B8CFF6
:100DD000808191812881A801420F511D27FD5A95DC
:100DE0009A01FA01EE0FFF1FE20FF31FE35EFD4FC2
:100DF00021813281820F931FF70191838083888143
:100E00009801280F311D87FD3A95F901EE0FFF1F5C
:100E1000E20FF31FE35EFD4F808186FF22C08881D1
:100E2000080F111D87FD1A95F801EE0FFF1FE00F47
:100E3000F11FE35EFD4F808161E08F73DF91CF9101
:100E40001F910F91FF90EF90DF90CF90BF90AF90E8
:100E50000C94310380E49CE9F701918380838FEF48
:100E60008883DF91CF911F910F91FF90EF90DF90DA
:100E7000CF90BF90AF9008950F931F9302C07595C8
:100E800067954A95E2F760FF06C0B901A8011F9176
:100E90000F910C945E014091590350915A03609157
:100EA0005B0370915C03F3CFCF93DF93EC0188EB8E
:100EB00092E00E943902853B910514F084EB90E0AA
:100EC00097FF02C090E080E09093B7028093B60253
:100ED00064EB70E0681B790BCE01DF91CF910C942D
:100EE0008B051F920F920FB60F9211240BB60F9223
:100EF0002F933F934F935F936F937F938F939F9322
:100F0000AF93BF93EF93FF9388EB92E00E9471023F
:100F1000FF91EF91BF91AF919F918F917F916F91D1
:100F20005F914F913F912F910F900BBE0F900FBE8D
:100F30000F901F9018951F920F920FB60F921124C9
:100F40000BB60F922F938F939F93EF93FF93E091A4
:100F5000C802F091C9028081E091CE02F091CF02E7
:100F600082FD1DC090818091D1028F5F8F7320918F
:100F7000D202821741F0E091D102F0E0E854FD4F37
:100F8000958F8093D102FF91EF919F918F912F9137
:100F90000F900BBE0F900FBE0F901F901895808181
:100FA000F2CF1F920F920FB60F9211242F933F93FF
:100FB0008F939F93AF93BF938091AE029091AF02B6
:100FC000A091B002B091B1023091AD0223E0230FA5
:100FD0002D3758F50196A11DB11D2093AD028093C8
:100FE000AE029093AF02A093B002B093B102809191
:100FF000B2029091B302A091B402B091B5020196F1
:10100000A11DB11D8093B2029093B302A093B402CC
:10101000B093B502BF91AF919F918F913F912F9166
:101020000F900FBE0F901F90189526E8230F029681
:10103000A11DB11DD2CF1F920F920FB60F92112496
:101040000BB60F922F933F934F935F936F937F93C2
:101050008F939F93AF93BF93EF93FF9348E251E039
:1010600064E271E090E080E00E948206FF91EF91DF
:10107000BF91AF919F918F917F916F915F914F91B0
:101080003F912F910F900BBE0F900FBE0F901F90AE
:1010900018951F920F920FB60F9211240BB60F9254
:1010A0002F933F934F935F936F937F938F939F9370
:1010B000AF93BF93EF93FF9348EA50E064EA70E088
:1010C00083E090E00E948206FF91EF91BF91AF9183
:1010D0009F918F917F916F915F914F913F912F9150
:1010E0000F900BBE0F900FBE0F901F9018951F9280
:1010F0000F920FB60F9211240BB60F922F933F93BE
:101100004F935F936F937F938F939F93AF93BF930F
:10111000EF93FF9348E950E064E970E082E090E0EB
:101120000E948206FF91EF91BF91AF919F918F91A5
:101130007F916F915F914F913F912F910F900BBED7
:101140000F900FBE0F901F9018951F920F920FB621
:101150000F9211240BB60F922F933F934F935F93EF
:101160006F937F938F939F93AF93BF93EF93FF936F
:1011700048E850E064E870E081E090E00E94820678
:10118000FF91EF91BF91AF919F918F917F916F915F
:101190005F914F913F912F910F900BBE0F900FBE1B
:1011A0000F901F901895FC0190911C02903398F4B9
:1011B00081E0890F80931C029083892F90E0FC01CD
:1011C000EE0FFF1FE80FF91FE35EFD4F88EB9BE07A
:1011D0009283818308958FEF808308951092BB02DC
:1011E0001092BA0288EE93E0A0E0B0E08093BC02D7
:1011F0009093BD02A093BE02B093BF028AE092E03A
:101200009093B9028093B80285EC90E09093C50268
:101210008093C40284EC90E09093C7028093C6024E
:1012200080EC90E09093C9028093C80281EC90E03A
:101230009093CB028093CA0282EC90E09093CD020F
:101240008093CC0286EC90E09093CF028093CE0204
:101250001092D1021092D2021092D3021092D402B4
:1012600081EA93E00E94D3088EE993E00E94D308BC
:101270008BE993E00E94D30888E993E00E94D308A9
:1012800085E993E00E94D30882E993E00E94D308A5
:101290008FE893E00E94D3088CE893E00E94D30883
:1012A00089E893E00E94D30886E893E00E94D3087F
:1012B00083E893E00E94D30810926E0310927503A6
:1012C00010927C0310927D0310927E0310927F0394
:1012D00081E080937B03809378031092790392E0FE
:1012E00090937A0380936D0381EE90E09093720364
:1012F000809371030E9499109093770380937603F3
:10130000009709F475C021EEFC0111922A95E9F7C6
:101310008BE490E09093700380936F0384E390E0FC
:10132000909374038093730380916E03882341F03C
:1013300061E084E30E94BD0360E084E30E94310326
:10134000E0E4F2E0E491F0E0EE0FFF1FEE50FE4F1C
:10135000859194919093810380938003E0EEF1E076
:10136000E491E093820380E090E0AFEFB0E08093FF
:10137000690390936A03A0936B03B0936C0380E0BE
:101380009FEFA0E0B0E08093650390936603A09385
:101390006703B09368038FEF90E0A0E0B0E0809324
:1013A000610390936203A0936303B093640380E0AE
:1013B0009FEFAFEFB0E080935D0390935E03A09347
:1013C0005F03B09360031092590310925A03109276
:1013D0005B0310925C038FE79FE7AFE7B0E0809379
:1013E000550390935603A0935703B0935803089561
:1013F00010927203109271031092700310926F0397
:101400008DCFCF93DF9300D000D0CDB7DEB77894E7
:1014100084B5826084BD84B5816084BD85B58260F9
:1014200085BD85B5816085BD80916E0081608093AA
:101430006E00109281008091810082608093810013
:101440008091810081608093810080918000816023
:10145000809380008091B10084608093B10080917E
:10146000B00081608093B000809191008260809391
:101470009100809191008160809391008091900013
:101480008160809390008091A10082608093A10090
:101490008091A10081608093A1008091A000816073
:1014A0008093A0008091210182608093210180912E
:1014B00021018160809321018091200181608093CE
:1014C000200180917A00846080937A0080917A0074
:1014D000826080937A0080917A00816080937A00A4
:1014E00080917A00806880937A001092C100E09128
:1014F000C802F091C90282E08083E091C402F091B9
:10150000C5021082E091C602F091C70280E180839B
:101510001092D002E091CC02F091CD0286E080835F
:10152000E091CA02F091CB02808180618083E091DA
:10153000CA02F091CB02808188608083E091CA0268
:10154000F091CB02808180688083E091CA02F091A3
:10155000CB0280818F7D808380917303909174038F
:1015600097FD08C061E00E94BD0360E080917303B5
:101570000E94310381E080936E03609175036333B1
:1015800029F120917603309177036150C9F070E022
:101590008FEF92E30E947D10F90140917103509109
:1015A0007203CF01821B930B8417950760F440816F
:1015B000469FC001479F900D112490833196EDCF37
:1015C00070E060E0E9CF83E38093750362E070E050
:1015D00081EA93E00E94FA0564EB70E081EA93E00F
:1015E0000E948B0563E070E08EE993E00E94FA05AB
:1015F00064EB70E08EE993E00E948B0564E070E09C
:101600008BE993E00E94FA0564EB70E08BE993E0CC
:101610000E948B0565E070E088E993E00E94FA057E
:1016200064EB70E088E993E00E948B0566E070E06F
:1016300085E993E00E94FA0564EB70E085E993E0A8
:101640000E948B0567E070E082E993E00E94FA0552
:1016500064EB70E082E993E00E948B0568E070E043
:101660008FE893E00E94FA0564EB70E08FE893E066
:101670000E948B0569E070E08CE893E00E94FA0517
:1016800064EB70E08CE893E00E948B056AE070E008
:1016900089E893E00E94FA0564EB70E089E893E042
:1016A0000E948B056BE070E086E893E00E94FA05EB
:1016B00064EB70E086E893E00E948B0564EB70E0D9
:1016C00083E893E00E948B05C0905503D0905603A9
:1016D000E0905703F090580330E020E050E040E005
:1016E000C701B6010E94CF010E94130464EF71E0AC
:1016F00080E090E00E94EF0424EB30E03A832983FD
:1017000069817A8181EA93E00E948B0569817A81FF
:101710008EE993E00E948B0569817A818BE993E0E1
:101720000E948B0569817A8188E993E00E948B058C
:1017300069817A8185E993E00E948B0569817A81CC
:1017400082E993E00E948B0569817A818FE893E0BA
:101750000E948B0569817A818CE893E00E948B0559
:1017600069817A8189E893E00E948B0569817A8199
:1017700086E893E00E948B056AE070E080E090E0EC
:101780000E94EF0489819A8101979A838983019647
:1017900009F0B6CF60ED77E080E090E00E94EF04C2
:1017A0001A82198269817A8181EA93E00E948B050D
:1017B00069817A818EE993E00E948B0569817A8143
:1017C0008BE993E00E948B0569817A8188E993E037
:1017D0000E948B0569817A8185E993E00E948B05DF
:1017E00069817A8182E993E00E948B0569817A811F
:1017F0008FE893E00E948B0569817A818CE893E001
:101800000E948B0569817A8189E893E00E948B05AB
:1018100069817A8186E893E00E948B056AE070E036
:1018200080E090E00E94EF0429813A812F5F3F4FD2
:101830003A832983253B310509F0B4CF68EE73E084
:1018400080E090E00E94EF046091690370916A0368
:1018500080916B0390916C0330E020E050E040E019
:101860000E94CF010E94130468EE73E080E090E0D4
:101870000E94EF0460916503709166038091670395
:101880009091680330E020E050E040E00E94CF01FA
:101890000E94130468EE73E080E090E00E94EF0481
:1018A000609161037091620380916303909164037E
:1018B00030E020E050E040E00E94CF010E9413049D
:1018C00068EE73E080E090E00E94EF0430E020E0FA
:1018D00050E040E0C701B6010E94CF010E9413040E
:1018E00088EB92E00E945B0241970CF4D2C188EB36
:1018F00092E00E9439029093B7028093B6028F3F24
:10190000910509F0C6C188EB92E00E9439029093DC
:10191000B7028093B602029709F0BBC18FE893E04B
:101920000E94540788E993E00E94540786E893E0F8
:101930000E94540789E893E00E94540782E993E0EB
:101940000E9454078BE993E00E94540781EA93E0D8
:101950000E9454078CE893E00E9454078EE993E0BC
:101960000E94540783E893E00E94540785E993E0BE
:101970000E94540783E893E00E942105843B91056F
:1019800024F461E080E40E94310383E893E00E9444
:101990002105843B910524F060E080E40E9431033E
:1019A00089E893E00E9421058090690390906A0382
:1019B000A0906B03B0906C03B501A401449744F070
:1019C0004091590350915A0360915B0370915C03FD
:1019D0008AE290E00E945E0181EA93E00E94210584
:1019E000B501A401449744F04091590350915A0322
:1019F00060915B0370915C038DE090E00E945E015A
:101A000088E993E00E9421059A83898388E993E01D
:101A10000E942105C0906503D0906603E0906703A3
:101A2000F090680340905503509056036090570320
:101A300070905803A981BA81AF3AB1050CF02CC15E
:101A4000863A91050CF428C127E030E044E150E0EB
:101A5000C301B2010E94CF01B701A60184E190E069
:101A60000E945E018FE893E00E9421059A8389839A
:101A70008FE893E00E942105A981BA81AA3AB105B5
:101A80000CF0D1C1873991050CF4CDC128E030E0CC
:101A90004DE150E0C301B2010E94CF01B701A601A0
:101AA0008DE190E00E945E0188EB92E00E94390295
:101AB0009E838D8380915D0390915E03A0915F036F
:101AC000B091600389839A83AB83BC838C019D01B1
:101AD00047E050E06D817E8185E090E00E943C0708
:101AE0009701860145E050E06D817E818FE090E0B6
:101AF0000E943C07970144E050E06D817E8186E2C0
:101B000090E00E943C0709811A812B813C8143E0CF
:101B100050E06D817E8184E090E00E943C0700915E
:101B2000610310916203209163033091640342E0EA
:101B300050E06D817E8183E090E00E943C078090C0
:101B4000690390906A03A0906B03B0906C039501B9
:101B5000840141E050E06D817E8181E390E00E944C
:101B60003C0788EB92E00E9439029E838D839501A9
:101B700047E050E0BC018DE290E00E943C079501F7
:101B800046E050E06D817E818FE290E00E943C074C
:101B9000950145E050E06D817E818CE290E00E94ED
:101BA0003C07950144E050E06D817E818CE190E03E
:101BB0000E943C0709811A812B813C8143E050E05F
:101BC0006D817E8180E190E00E943C079501840157
:101BD00042E050E06D817E818BE090E00E943C0706
:101BE000950141E050E06D817E8189E090E00E94A6
:101BF0003C07950150E040E06D817E8188E290E0F5
:101C00000E943C0788EB92E00E9439029E838D83FC
:101C10009093B7028093B60209811A812B813C818F
:101C200043E050E0BC0187E090E00E943C0709815E
:101C30001A812B813C8143E050E06D817E8188E0F8
:101C400090E00E943C0709811A812B813C8142E08F
:101C500050E06D817E8182E190E00E943C0793011B
:101C6000820141E050E06D817E8190E080E00E9441
:101C70003C079701860150E040E06D817E8190E055
:101C800080E00E943C0788EB92E00E9439020E94AB
:101C900013040E94000324CE88E993E00E942105EA
:101CA0009A83898388E993E00E94210529813A81FA
:101CB000253A3105A4F4883891058CF027E030E00E
:101CC00044E150E0C301B2010E94CF0122E030E0C4
:101CD00044E150E0C701B6010E94CF01C3CE88E9BC
:101CE00093E00E9421059A83898388E993E00E940A
:101CF0002105A981BA81A738B10574F48A36910506
:101D00005CF027E030E044E150E0C301B2010E9402
:101D1000CF0123E030E0DCCF88E993E00E94210589
:101D20009A83898388E993E00E94210529813A8179
:101D30002936310574F48C3491055CF027E030E0ED
:101D400044E150E0C301B2010E94CF0124E030E041
:101D5000BFCF88E993E00E9421059A83898388E9AF
:101D600093E00E942105A981BA81AB34B105BCF48E
:101D70008E97ACF027E030E044E150E0C301B201BF
:101D80000E94CF0124E030E044E150E0C701B601F9
:101D90000E94CF01B501A40188E190E061CE88E9FD
:101DA00093E00E9421059A83898388E993E00E9449
:101DB000210529813A812D323105CCF44097BCF0C0
:101DC00027E030E044E150E0C301B2010E94CF01BE
:101DD00024E030E044E150E0C701B6010E94CF01A9
:101DE00022E030E048E150E0C501B40175CF88E958
:101DF00093E00E94210527E030E044E150E00F9796
:101E00007CF4C301B2010E94CF0124E030E044E140
:101E100050E0C701B6010E94CF0123E030E0E2CFDD
:101E2000C301B20159CF8FE893E00E9421059A8344
:101E300089838FE893E00E94210529813A81263920
:101E40003105A4F4833891058CF028E030E04DE1B1
:101E500050E0C301B2010E94CF0122E030E04DE129
:101E600050E0C701B6010E94CF011ECE8FE893E07B
:101E70000E9421059A8389838FE893E00E942105BF
:101E8000A981BA81A238B10574F48F3691055CF04E
:101E900028E030E04DE150E0C301B2010E94CF01E3
:101EA00023E030E0DCCF8FE893E00E9421059A83A5
:101EB00089838FE893E00E94210529813A812E369B
:101EC000310574F48B3591055CF028E030E04DE18C
:101ED00050E0C301B2010E94CF0124E030E0BFCF47
:101EE0008FE893E00E9421059A8389838FE893E02D
:101EF0000E942105A981BA81AA35B105C4F48734AD
:101F00009105ACF028E030E04DE150E0C301B201B2
:101F10000E94CF0124E030E04DE150E0C701B6015E
:101F20000E94CF01B501A40181E290E0BBCD8FE812
:101F300093E00E9421059A8389838FE893E00E94B1
:101F4000210529813A8126343105CCF4C397BCF0B0
:101F500028E030E04DE150E0C301B2010E94CF0122
:101F600024E030E04DE150E0C701B6010E94CF010E
:101F700022E030E041E250E0C501B40174CF8FE8C7
:101F800093E00E9421059A8389838FE893E00E9461
:101F90002105A981BA81D297ACF44F979CF028E033
:101FA00030E04DE150E0C301B2010E94CF0124E0D6
:101FB00030E04DE150E0C701B6010E94CF0123E0BF
:101FC00030E0D8CF8FE893E00E94210528E030E090
:101FD0004DE150E04E977CF4C301B2010E94CF0165
:101FE00024E030E04DE150E0C701B6010E94CF018E
:101FF00024E030E0BFCFC301B20135CF809176033A
:10200000909177030E94351180917303909174032E
:1020100097FD03C060E00C94BD030895052E97FB67
:102020001EF400940E94251057FD07D00E94401016
:1020300007FC03D04EF40C94251050954095309534
:1020400021953F4F4F4F5F4F089590958095709524
:1020500061957F4F8F4F9F4F08950E946210A59FFB
:10206000900DB49F900DA49F800D911D1124089593
:10207000B7FF0C942D100E942D10821B930B089516
:10208000A1E21A2EAA1BBB1BFD010DC0AA1FBB1F7C
:10209000EE1FFF1FA217B307E407F50720F0A21BEE
:1020A000B30BE40BF50B661F771F881F991F1A945B
:1020B00069F760957095809590959B01AC01BD0185
:1020C000CF010895A29FB001B39FC001A39F700DDF
:1020D000811D1124911DB29F700D811D1124911D30
:1020E0000895991B79E004C0991F961708F0961B74
:1020F000881F7A95C9F780950895AA1BBB1B51E1EB
:1021000007C0AA1FBB1FA617B70710F0A61BB70B67
:10211000881F991F5A95A9F780959095BC01CD010C
:102120000895EE0FFF1F881F8BBF0790F691E02DDB
:1021300019940F931F93CF93DF938230910510F47E
:1021400082E090E0E091A603F091A70330E020E068
:10215000B0E0A0E0309799F42115310509F44AC0A8
:10216000281B390B24303105D8F58A819B816115F4
:10217000710589F1FB0193838283FE0111C04081C7
:1021800051810281138148175907E0F04817590718
:1021900099F4109761F012960C93129713961C9372
:1021A0003296CF01DF91CF911F910F910895009347
:1021B000A6031093A703F4CF2115310551F0421760
:1021C000530738F0A901DB019A01BD01DF01F801D5
:1021D000C1CFEF01F9CF9093A7038093A603CDCF92
:1021E000FE01E20FF31F819391932250310939834D
:1021F0002883D7CF2091A4033091A503232B41F44A
:1022000020910202309103023093A5032093A4038E
:1022100020910002309101022115310541F42DB7C2
:102220003EB74091040250910502241B350BE0910A
:10223000A403F091A503E217F307A0F42E1B3F0BB4
:102240002817390778F0AC014E5F5F4F2417350728
:1022500048F04E0F5F1F5093A5034093A403819352
:1022600091939FCFF0E0E0E09CCFCF93DF93009776
:10227000E9F0FC01329713821282A091A603B0917B
:10228000A703ED0130E020E01097A1F42081318117
:10229000820F931F2091A4033091A50328173907BB
:1022A00009F061C0F093A503E093A403DF91CF91FF
:1022B0000895EA01CE17DF07E8F54A815B819E01A8
:1022C00041155105B1F7E901FB83EA834991599121
:1022D000C40FD51FEC17FD0761F480819181029630
:1022E000840F951FE90199838883828193819B8361
:1022F0008A83F0E0E0E012968D919C91139700970D
:10230000B9F52D913C911197CD010296820F931F43
:102310002091A4033091A5032817390739F6309787
:1023200051F51092A7031092A603B093A503A093B2
:10233000A403BCCFD383C28340815181840F951FF6
:10234000C817D90761F44E5F5F4F88819981480FA4
:10235000591F518340838A819B81938382832115F6
:10236000310509F0B0CFF093A703E093A6039ECF09
:10237000FD01DC01C0CF13821282D7CF11E0CAE287
:10238000D1E000E006C0802FFE010E94911021964E
:10239000011DCB32D10780E00807A9F7F894FFCFE1
:1023A0000000A8038000000000009302FD012A0243
:0823B000E0025B0239024D025C
:00000001FF
